// Jest Snapshot v1, https://goo.gl/fbAQLP

exports[`create a request should create a valid transaction 1`] = `"0xf9024080808094f12b5dd4ead5f743c6baa640b0216200e89b60da80b902241e24e02900000000000000000000000000000000000000000000000000000000000000c000000000000000000000000000000000000000000000000000000000000001000000000000000000000000004b7b1cbbd739a2a0e95b32b64fd3d249c671bd440000000000000000000000000000000000000000000000000000000000000140000000000000000000000000000000000000000000000000000000000000018000000000000000000000000000000000000000000000000000000000000001c00000000000000000000000000000000000000000000000000000000000000001000000000000000000000000627306090abab3a6e1400e9345bc60c78a8bef57000000000000000000000000000000000000000000000000000000000000000100000000000000000000000000000000000000000000000000000000000000640000000000000000000000000000000000000000000000000000000000000001000000000000000000000000000000000000000000000000000000000000000000000000000000000000000000000000000000000000000000000000000000010000000000000000000000000000000000000000000000000000000000000000000000000000000000000000000000000000000000000000000000000000002e516d5234506a4c3971737a42417a64526976573539416d386859526a32416b446b4537465133656e7a4c69423748000000000000000000000000000000000000"`;

exports[`e2e should create a broadcastable transaction 1`] = `
Object {
  "chainId": 0,
  "data": "0x1e24e02900000000000000000000000000000000000000000000000000000000000000c000000000000000000000000000000000000000000000000000000000000001000000000000000000000000004b7b1cbbd739a2a0e95b32b64fd3d249c671bd440000000000000000000000000000000000000000000000000000000000000140000000000000000000000000000000000000000000000000000000000000018000000000000000000000000000000000000000000000000000000000000001c00000000000000000000000000000000000000000000000000000000000000001000000000000000000000000627306090abab3a6e1400e9345bc60c78a8bef57000000000000000000000000000000000000000000000000000000000000000100000000000000000000000000000000000000000000d3c21bcecceda10000000000000000000000000000000000000000000000000000000000000000000001000000000000000000000000000000000000000000000000000000000000000000000000000000000000000000000000000000000000000000000000000000010000000000000000000000000000000000000000000000000000000000000000000000000000000000000000000000000000000000000000000000000000002e516d5234506a4c3971737a42417a64526976573539416d386859526a32416b446b4537465133656e7a4c69423748000000000000000000000000000000000000",
  "from": "0x627306090abaB3A6e1400e9345bC60c78a8BEf57",
  "gasLimit": BigNumber {
    "_hex": "0x00",
  },
  "gasPrice": BigNumber {
    "_hex": "0x00",
  },
  "hash": "0x99842fe29a7a9ad7ecd1cb60c894ee6ecc85621bd56cb71019bf341ff417a551",
  "nonce": 33,
  "r": "0x064066c647781b5e7601cb14d77e9c077ff80c362dd1b4cb1087f3f490baf042",
  "s": "0x125e7889911b6a2fc1682384d1a89cc30b77e6abb6a12d982d70260d7a65813a",
  "to": "0xF12b5dd4EAD5F743C6BaA640B0216200e89B60Da",
  "v": 27,
  "value": BigNumber {
    "_hex": "0x00",
  },
}
`;

exports[`e2e should parse a signed transaction 1`] = `
Object {
  "chainId": 0,
  "data": "0x1e24e02900000000000000000000000000000000000000000000000000000000000000c000000000000000000000000000000000000000000000000000000000000001000000000000000000000000004b7b1cbbd739a2a0e95b32b64fd3d249c671bd440000000000000000000000000000000000000000000000000000000000000140000000000000000000000000000000000000000000000000000000000000018000000000000000000000000000000000000000000000000000000000000001c00000000000000000000000000000000000000000000000000000000000000001000000000000000000000000627306090abab3a6e1400e9345bc60c78a8bef57000000000000000000000000000000000000000000000000000000000000000100000000000000000000000000000000000000000000000000000000000000640000000000000000000000000000000000000000000000000000000000000001000000000000000000000000000000000000000000000000000000000000000000000000000000000000000000000000000000000000000000000000000000010000000000000000000000000000000000000000000000000000000000000000000000000000000000000000000000000000000000000000000000000000002e516d5234506a4c3971737a42417a64526976573539416d386859526a32416b446b4537465133656e7a4c69423748000000000000000000000000000000000000",
  "from": "0x627306090abaB3A6e1400e9345bC60c78a8BEf57",
  "gasLimit": BigNumber {
    "_hex": "0x00",
  },
  "gasPrice": BigNumber {
    "_hex": "0x00",
  },
  "hash": "0x8987c20cf0de63ec30e52b8dff70e86fddffa24140541eb028700ac5cbc994e8",
  "nonce": 0,
  "r": "0x7581ee61890d57a6ed257a61acbfebc4a647333001cb72d50a0ad26b63b83678",
  "s": "0x1b5df879e3f12a0da7b7c9a4f82cff660650af7850459664a94b2be722c916b1",
  "to": "0xF12b5dd4EAD5F743C6BaA640B0216200e89B60Da",
  "v": 28,
  "value": BigNumber {
    "_hex": "0x00",
  },
}
`;
